{
  "_format": "hh-sol-artifact-1",
  "contractName": "NftMarketPlace",
  "sourceName": "contracts/NftMarketPlace.sol",
  "abi": [
    {
      "inputs": [],
      "stateMutability": "nonpayable",
      "type": "constructor"
    },
    {
      "anonymous": false,
      "inputs": [
        {
          "indexed": true,
          "internalType": "address",
          "name": "owner",
          "type": "address"
        },
        {
          "indexed": true,
          "internalType": "address",
          "name": "approved",
          "type": "address"
        },
        {
          "indexed": true,
          "internalType": "uint256",
          "name": "tokenId",
          "type": "uint256"
        }
      ],
      "name": "Approval",
      "type": "event"
    },
    {
      "anonymous": false,
      "inputs": [
        {
          "indexed": true,
          "internalType": "address",
          "name": "owner",
          "type": "address"
        },
        {
          "indexed": true,
          "internalType": "address",
          "name": "operator",
          "type": "address"
        },
        {
          "indexed": false,
          "internalType": "bool",
          "name": "approved",
          "type": "bool"
        }
      ],
      "name": "ApprovalForAll",
      "type": "event"
    },
    {
      "anonymous": false,
      "inputs": [
        {
          "indexed": true,
          "internalType": "address",
          "name": "from",
          "type": "address"
        },
        {
          "indexed": true,
          "internalType": "address",
          "name": "to",
          "type": "address"
        },
        {
          "indexed": true,
          "internalType": "uint256",
          "name": "tokenId",
          "type": "uint256"
        }
      ],
      "name": "Transfer",
      "type": "event"
    },
    {
      "anonymous": false,
      "inputs": [
        {
          "indexed": true,
          "internalType": "uint256",
          "name": "tokenId",
          "type": "uint256"
        },
        {
          "indexed": false,
          "internalType": "address",
          "name": "seller",
          "type": "address"
        },
        {
          "indexed": false,
          "internalType": "address",
          "name": "buyer",
          "type": "address"
        },
        {
          "indexed": false,
          "internalType": "uint256",
          "name": "price",
          "type": "uint256"
        },
        {
          "indexed": false,
          "internalType": "bool",
          "name": "sold",
          "type": "bool"
        }
      ],
      "name": "idMarketItemCreated",
      "type": "event"
    },
    {
      "inputs": [
        {
          "internalType": "address",
          "name": "to",
          "type": "address"
        },
        {
          "internalType": "uint256",
          "name": "tokenId",
          "type": "uint256"
        }
      ],
      "name": "approve",
      "outputs": [],
      "stateMutability": "nonpayable",
      "type": "function"
    },
    {
      "inputs": [
        {
          "internalType": "address",
          "name": "owner",
          "type": "address"
        }
      ],
      "name": "balanceOf",
      "outputs": [
        {
          "internalType": "uint256",
          "name": "",
          "type": "uint256"
        }
      ],
      "stateMutability": "view",
      "type": "function"
    },
    {
      "inputs": [
        {
          "internalType": "uint256",
          "name": "_tokenId",
          "type": "uint256"
        }
      ],
      "name": "createMarketSale",
      "outputs": [],
      "stateMutability": "payable",
      "type": "function"
    },
    {
      "inputs": [
        {
          "internalType": "string",
          "name": "_tokenURI",
          "type": "string"
        },
        {
          "internalType": "uint256",
          "name": "_price",
          "type": "uint256"
        }
      ],
      "name": "createToken",
      "outputs": [
        {
          "internalType": "uint256",
          "name": "",
          "type": "uint256"
        }
      ],
      "stateMutability": "payable",
      "type": "function"
    },
    {
      "inputs": [],
      "name": "fecthMyNFT",
      "outputs": [
        {
          "components": [
            {
              "internalType": "uint256",
              "name": "tokenId",
              "type": "uint256"
            },
            {
              "internalType": "address payable",
              "name": "seller",
              "type": "address"
            },
            {
              "internalType": "address payable",
              "name": "owner",
              "type": "address"
            },
            {
              "internalType": "uint256",
              "name": "price",
              "type": "uint256"
            },
            {
              "internalType": "bool",
              "name": "sold",
              "type": "bool"
            }
          ],
          "internalType": "struct NftMarketPlace.MarketItem[]",
          "name": "",
          "type": "tuple[]"
        }
      ],
      "stateMutability": "view",
      "type": "function"
    },
    {
      "inputs": [],
      "name": "fetchItemListed",
      "outputs": [
        {
          "components": [
            {
              "internalType": "uint256",
              "name": "tokenId",
              "type": "uint256"
            },
            {
              "internalType": "address payable",
              "name": "seller",
              "type": "address"
            },
            {
              "internalType": "address payable",
              "name": "owner",
              "type": "address"
            },
            {
              "internalType": "uint256",
              "name": "price",
              "type": "uint256"
            },
            {
              "internalType": "bool",
              "name": "sold",
              "type": "bool"
            }
          ],
          "internalType": "struct NftMarketPlace.MarketItem[]",
          "name": "",
          "type": "tuple[]"
        }
      ],
      "stateMutability": "view",
      "type": "function"
    },
    {
      "inputs": [],
      "name": "fetchMarketItem",
      "outputs": [
        {
          "components": [
            {
              "internalType": "uint256",
              "name": "tokenId",
              "type": "uint256"
            },
            {
              "internalType": "address payable",
              "name": "seller",
              "type": "address"
            },
            {
              "internalType": "address payable",
              "name": "owner",
              "type": "address"
            },
            {
              "internalType": "uint256",
              "name": "price",
              "type": "uint256"
            },
            {
              "internalType": "bool",
              "name": "sold",
              "type": "bool"
            }
          ],
          "internalType": "struct NftMarketPlace.MarketItem[]",
          "name": "",
          "type": "tuple[]"
        }
      ],
      "stateMutability": "view",
      "type": "function"
    },
    {
      "inputs": [
        {
          "internalType": "uint256",
          "name": "tokenId",
          "type": "uint256"
        }
      ],
      "name": "getApproved",
      "outputs": [
        {
          "internalType": "address",
          "name": "",
          "type": "address"
        }
      ],
      "stateMutability": "view",
      "type": "function"
    },
    {
      "inputs": [],
      "name": "getListingPrice",
      "outputs": [
        {
          "internalType": "uint256",
          "name": "",
          "type": "uint256"
        }
      ],
      "stateMutability": "view",
      "type": "function"
    },
    {
      "inputs": [
        {
          "internalType": "address",
          "name": "owner",
          "type": "address"
        },
        {
          "internalType": "address",
          "name": "operator",
          "type": "address"
        }
      ],
      "name": "isApprovedForAll",
      "outputs": [
        {
          "internalType": "bool",
          "name": "",
          "type": "bool"
        }
      ],
      "stateMutability": "view",
      "type": "function"
    },
    {
      "inputs": [],
      "name": "name",
      "outputs": [
        {
          "internalType": "string",
          "name": "",
          "type": "string"
        }
      ],
      "stateMutability": "view",
      "type": "function"
    },
    {
      "inputs": [
        {
          "internalType": "uint256",
          "name": "tokenId",
          "type": "uint256"
        }
      ],
      "name": "ownerOf",
      "outputs": [
        {
          "internalType": "address",
          "name": "",
          "type": "address"
        }
      ],
      "stateMutability": "view",
      "type": "function"
    },
    {
      "inputs": [
        {
          "internalType": "uint256",
          "name": "_tokenId",
          "type": "uint256"
        },
        {
          "internalType": "uint256",
          "name": "_price",
          "type": "uint256"
        }
      ],
      "name": "resellToken",
      "outputs": [],
      "stateMutability": "payable",
      "type": "function"
    },
    {
      "inputs": [
        {
          "internalType": "address",
          "name": "from",
          "type": "address"
        },
        {
          "internalType": "address",
          "name": "to",
          "type": "address"
        },
        {
          "internalType": "uint256",
          "name": "tokenId",
          "type": "uint256"
        }
      ],
      "name": "safeTransferFrom",
      "outputs": [],
      "stateMutability": "nonpayable",
      "type": "function"
    },
    {
      "inputs": [
        {
          "internalType": "address",
          "name": "from",
          "type": "address"
        },
        {
          "internalType": "address",
          "name": "to",
          "type": "address"
        },
        {
          "internalType": "uint256",
          "name": "tokenId",
          "type": "uint256"
        },
        {
          "internalType": "bytes",
          "name": "data",
          "type": "bytes"
        }
      ],
      "name": "safeTransferFrom",
      "outputs": [],
      "stateMutability": "nonpayable",
      "type": "function"
    },
    {
      "inputs": [
        {
          "internalType": "address",
          "name": "operator",
          "type": "address"
        },
        {
          "internalType": "bool",
          "name": "approved",
          "type": "bool"
        }
      ],
      "name": "setApprovalForAll",
      "outputs": [],
      "stateMutability": "nonpayable",
      "type": "function"
    },
    {
      "inputs": [
        {
          "internalType": "bytes4",
          "name": "interfaceId",
          "type": "bytes4"
        }
      ],
      "name": "supportsInterface",
      "outputs": [
        {
          "internalType": "bool",
          "name": "",
          "type": "bool"
        }
      ],
      "stateMutability": "view",
      "type": "function"
    },
    {
      "inputs": [],
      "name": "symbol",
      "outputs": [
        {
          "internalType": "string",
          "name": "",
          "type": "string"
        }
      ],
      "stateMutability": "view",
      "type": "function"
    },
    {
      "inputs": [
        {
          "internalType": "uint256",
          "name": "tokenId",
          "type": "uint256"
        }
      ],
      "name": "tokenURI",
      "outputs": [
        {
          "internalType": "string",
          "name": "",
          "type": "string"
        }
      ],
      "stateMutability": "view",
      "type": "function"
    },
    {
      "inputs": [
        {
          "internalType": "address",
          "name": "from",
          "type": "address"
        },
        {
          "internalType": "address",
          "name": "to",
          "type": "address"
        },
        {
          "internalType": "uint256",
          "name": "tokenId",
          "type": "uint256"
        }
      ],
      "name": "transferFrom",
      "outputs": [],
      "stateMutability": "nonpayable",
      "type": "function"
    },
    {
      "inputs": [
        {
          "internalType": "uint256",
          "name": "_listingPrice",
          "type": "uint256"
        }
      ],
      "name": "updateListingPrice",
      "outputs": [],
      "stateMutability": "payable",
      "type": "function"
    }
  ],
  "bytecode": "0x60a06040526605543df729c0006009553480156200001c57600080fd5b506040518060400160405280601381526020017f4e4654204d657461766572736520546f6b656e000000000000000000000000008152506040518060400160405280600481526020017f4d4554410000000000000000000000000000000000000000000000000000000081525081600090816200009a919062000363565b508060019081620000ac919062000363565b5050503373ffffffffffffffffffffffffffffffffffffffff1660808173ffffffffffffffffffffffffffffffffffffffff16815250506200044a565b600081519050919050565b7f4e487b7100000000000000000000000000000000000000000000000000000000600052604160045260246000fd5b7f4e487b7100000000000000000000000000000000000000000000000000000000600052602260045260246000fd5b600060028204905060018216806200016b57607f821691505b60208210810362000181576200018062000123565b5b50919050565b60008190508160005260206000209050919050565b60006020601f8301049050919050565b600082821b905092915050565b600060088302620001eb7fffffffffffffffffffffffffffffffffffffffffffffffffffffffffffffffff82620001ac565b620001f78683620001ac565b95508019841693508086168417925050509392505050565b6000819050919050565b6000819050919050565b6000620002446200023e62000238846200020f565b62000219565b6200020f565b9050919050565b6000819050919050565b620002608362000223565b620002786200026f826200024b565b848454620001b9565b825550505050565b600090565b6200028f62000280565b6200029c81848462000255565b505050565b5b81811015620002c457620002b860008262000285565b600181019050620002a2565b5050565b601f8211156200031357620002dd8162000187565b620002e8846200019c565b81016020851015620002f8578190505b6200031062000307856200019c565b830182620002a1565b50505b505050565b600082821c905092915050565b6000620003386000198460080262000318565b1980831691505092915050565b600062000353838362000325565b9150826002028217905092915050565b6200036e82620000e9565b67ffffffffffffffff8111156200038a5762000389620000f4565b5b62000396825462000152565b620003a3828285620002c8565b600060209050601f831160018114620003db5760008415620003c6578287015190505b620003d2858262000345565b86555062000442565b601f198416620003eb8662000187565b60005b828110156200041557848901518255600182019150602085019450602081019050620003ee565b8683101562000435578489015162000431601f89168262000325565b8355505b6001600288020188555050505b505050505050565b6080516142886200046d60003960008181610cdc01526111b801526142886000f3fe60806040526004361061012a5760003560e01c80638fafd021116100ab578063b88d4fde1161006f578063b88d4fde146103ea578063be9af53614610413578063c87b56dd1461042f578063e17914451461046c578063e219fc7514610497578063e985e9c5146104b35761012a565b80638fafd0211461032457806395d89b411461034f578063a22cb4651461037a578063ae677aa3146103a3578063b83eb6c4146103bf5761012a565b806323b872dd116100f257806323b872dd1461022857806342842e0e146102515780636352211e1461027a57806370a08231146102b757806372b3b620146102f45761012a565b806301ffc9a71461012f57806306fdde031461016c578063081812fc14610197578063095ea7b3146101d457806312e85585146101fd575b600080fd5b34801561013b57600080fd5b5061015660048036038101906101519190612bbe565b6104f0565b6040516101639190612c06565b60405180910390f35b34801561017857600080fd5b506101816105d2565b60405161018e9190612cb1565b60405180910390f35b3480156101a357600080fd5b506101be60048036038101906101b99190612d09565b610664565b6040516101cb9190612d77565b60405180910390f35b3480156101e057600080fd5b506101fb60048036038101906101f69190612dbe565b6106aa565b005b34801561020957600080fd5b506102126107c1565b60405161021f9190612e0d565b60405180910390f35b34801561023457600080fd5b5061024f600480360381019061024a9190612e28565b6107cb565b005b34801561025d57600080fd5b5061027860048036038101906102739190612e28565b61082b565b005b34801561028657600080fd5b506102a1600480360381019061029c9190612d09565b61084b565b6040516102ae9190612d77565b60405180910390f35b3480156102c357600080fd5b506102de60048036038101906102d99190612e7b565b6108d1565b6040516102eb9190612e0d565b60405180910390f35b61030e60048036038101906103099190612fdd565b610988565b60405161031b9190612e0d565b60405180910390f35b34801561033057600080fd5b506103396109ca565b604051610346919061318f565b60405180910390f35b34801561035b57600080fd5b50610364610c32565b6040516103719190612cb1565b60405180910390f35b34801561038657600080fd5b506103a1600480360381019061039c91906131dd565b610cc4565b005b6103bd60048036038101906103b89190612d09565b610cda565b005b3480156103cb57600080fd5b506103d4610d72565b6040516103e1919061318f565b60405180910390f35b3480156103f657600080fd5b50610411600480360381019061040c91906132be565b61105e565b005b61042d60048036038101906104289190612d09565b6110c0565b005b34801561043b57600080fd5b5061045660048036038101906104519190612d09565b6112a0565b6040516104639190612cb1565b60405180910390f35b34801561047857600080fd5b506104816113b2565b60405161048e919061318f565b60405180910390f35b6104b160048036038101906104ac9190613341565b61169e565b005b3480156104bf57600080fd5b506104da60048036038101906104d59190613381565b611894565b6040516104e79190612c06565b60405180910390f35b60007f80ac58cd000000000000000000000000000000000000000000000000000000007bffffffffffffffffffffffffffffffffffffffffffffffffffffffff1916827bffffffffffffffffffffffffffffffffffffffffffffffffffffffff191614806105bb57507f5b5e139f000000000000000000000000000000000000000000000000000000007bffffffffffffffffffffffffffffffffffffffffffffffffffffffff1916827bffffffffffffffffffffffffffffffffffffffffffffffffffffffff1916145b806105cb57506105ca82611928565b5b9050919050565b6060600080546105e1906133f0565b80601f016020809104026020016040519081016040528092919081815260200182805461060d906133f0565b801561065a5780601f1061062f5761010080835404028352916020019161065a565b820191906000526020600020905b81548152906001019060200180831161063d57829003601f168201915b5050505050905090565b600061066f82611992565b6004600083815260200190815260200160002060009054906101000a900473ffffffffffffffffffffffffffffffffffffffff169050919050565b60006106b58261084b565b90508073ffffffffffffffffffffffffffffffffffffffff168373ffffffffffffffffffffffffffffffffffffffff1603610725576040517f08c379a000000000000000000000000000000000000000000000000000000000815260040161071c90613493565b60405180910390fd5b8073ffffffffffffffffffffffffffffffffffffffff166107446119dd565b73ffffffffffffffffffffffffffffffffffffffff16148061077357506107728161076d6119dd565b611894565b5b6107b2576040517f08c379a00000000000000000000000000000000000000000000000000000000081526004016107a990613525565b60405180910390fd5b6107bc83836119e5565b505050565b6000600954905090565b6107dc6107d66119dd565b82611a9e565b61081b576040517f08c379a0000000000000000000000000000000000000000000000000000000008152600401610812906135b7565b60405180910390fd5b610826838383611b33565b505050565b6108468383836040518060200160405280600081525061105e565b505050565b60008061085783611e2c565b9050600073ffffffffffffffffffffffffffffffffffffffff168173ffffffffffffffffffffffffffffffffffffffff16036108c8576040517f08c379a00000000000000000000000000000000000000000000000000000000081526004016108bf90613623565b60405180910390fd5b80915050919050565b60008073ffffffffffffffffffffffffffffffffffffffff168273ffffffffffffffffffffffffffffffffffffffff1603610941576040517f08c379a0000000000000000000000000000000000000000000000000000000008152600401610938906136b5565b60405180910390fd5b600360008373ffffffffffffffffffffffffffffffffffffffff1673ffffffffffffffffffffffffffffffffffffffff168152602001908152602001600020549050919050565b60006109946007611e69565b60006109a06007611e7f565b90506109ac3382611e8d565b6109b681856120aa565b6109c08184612117565b8091505092915050565b606060006109d86007611e7f565b905060006109e66008611e7f565b6109f06007611e7f565b6109fa9190613704565b90506000808267ffffffffffffffff811115610a1957610a18612eb2565b5b604051908082528060200260200182016040528015610a5257816020015b610a3f612af5565b815260200190600190039081610a375790505b50905060005b84811015610c27573073ffffffffffffffffffffffffffffffffffffffff16600a6000600184610a889190613738565b815260200190815260200160002060020160009054906101000a900473ffffffffffffffffffffffffffffffffffffffff1673ffffffffffffffffffffffffffffffffffffffff1603610c14576000600182610ae49190613738565b90506000600a60008381526020019081526020016000209050806040518060a0016040529081600082015481526020016001820160009054906101000a900473ffffffffffffffffffffffffffffffffffffffff1673ffffffffffffffffffffffffffffffffffffffff1673ffffffffffffffffffffffffffffffffffffffff1681526020016002820160009054906101000a900473ffffffffffffffffffffffffffffffffffffffff1673ffffffffffffffffffffffffffffffffffffffff1673ffffffffffffffffffffffffffffffffffffffff168152602001600382015481526020016004820160009054906101000a900460ff161515151581525050848681518110610bf757610bf661376c565b5b6020026020010181905250600185610c0f9190613738565b945050505b8080610c1f9061379b565b915050610a58565b508094505050505090565b606060018054610c41906133f0565b80601f0160208091040260200160405190810160405280929190818152602001828054610c6d906133f0565b8015610cba5780601f10610c8f57610100808354040283529160200191610cba565b820191906000526020600020905b815481529060010190602001808311610c9d57829003601f168201915b5050505050905090565b610cd6610ccf6119dd565b838361231a565b5050565b7f000000000000000000000000000000000000000000000000000000000000000073ffffffffffffffffffffffffffffffffffffffff163373ffffffffffffffffffffffffffffffffffffffff1614610d68576040517f08c379a0000000000000000000000000000000000000000000000000000000008152600401610d5f9061382f565b60405180910390fd5b8060098190555050565b60606000610d806007611e7f565b905060008060005b83811015610e28573373ffffffffffffffffffffffffffffffffffffffff16600a6000600184610db89190613738565b815260200190815260200160002060020160009054906101000a900473ffffffffffffffffffffffffffffffffffffffff1673ffffffffffffffffffffffffffffffffffffffff1603610e1557600183610e129190613738565b92505b8080610e209061379b565b915050610d88565b5060008267ffffffffffffffff811115610e4557610e44612eb2565b5b604051908082528060200260200182016040528015610e7e57816020015b610e6b612af5565b815260200190600190039081610e635790505b50905060005b84811015611053573373ffffffffffffffffffffffffffffffffffffffff16600a6000600184610eb49190613738565b815260200190815260200160002060020160009054906101000a900473ffffffffffffffffffffffffffffffffffffffff1673ffffffffffffffffffffffffffffffffffffffff1603611040576000600182610f109190613738565b90506000600a60008381526020019081526020016000209050806040518060a0016040529081600082015481526020016001820160009054906101000a900473ffffffffffffffffffffffffffffffffffffffff1673ffffffffffffffffffffffffffffffffffffffff1673ffffffffffffffffffffffffffffffffffffffff1681526020016002820160009054906101000a900473ffffffffffffffffffffffffffffffffffffffff1673ffffffffffffffffffffffffffffffffffffffff1673ffffffffffffffffffffffffffffffffffffffff168152602001600382015481526020016004820160009054906101000a900460ff1615151515815250508486815181106110235761102261376c565b5b602002602001018190525060018561103b9190613738565b945050505b808061104b9061379b565b915050610e84565b508094505050505090565b61106f6110696119dd565b83611a9e565b6110ae576040517f08c379a00000000000000000000000000000000000000000000000000000000081526004016110a5906135b7565b60405180910390fd5b6110ba84848484612486565b50505050565b6000600a600083815260200190815260200160002060030154905080341461111d576040517f08c379a00000000000000000000000000000000000000000000000000000000081526004016111149061389b565b60405180910390fd5b33600a600084815260200190815260200160002060020160006101000a81548173ffffffffffffffffffffffffffffffffffffffff021916908373ffffffffffffffffffffffffffffffffffffffff1602179055506001600a600084815260200190815260200160002060040160006101000a81548160ff0219169083151502179055506111ab6008611e69565b6111b6303384611b33565b7f000000000000000000000000000000000000000000000000000000000000000073ffffffffffffffffffffffffffffffffffffffff166108fc6009549081150290604051600060405180830381858888f1935050505015801561121e573d6000803e3d6000fd5b50600a600083815260200190815260200160002060010160009054906101000a900473ffffffffffffffffffffffffffffffffffffffff1673ffffffffffffffffffffffffffffffffffffffff166108fc349081150290604051600060405180830381858888f1935050505015801561129b573d6000803e3d6000fd5b505050565b60606112ab82611992565b60006006600084815260200190815260200160002080546112cb906133f0565b80601f01602080910402602001604051908101604052809291908181526020018280546112f7906133f0565b80156113445780601f1061131957610100808354040283529160200191611344565b820191906000526020600020905b81548152906001019060200180831161132757829003601f168201915b5050505050905060006113556124e2565b9050600081510361136a5781925050506113ad565b60008251111561139f5780826040516020016113879291906138f7565b604051602081830303815290604052925050506113ad565b6113a8846124f9565b925050505b919050565b606060006113c06007611e7f565b905060008060005b83811015611468573373ffffffffffffffffffffffffffffffffffffffff16600a60006001846113f89190613738565b815260200190815260200160002060010160009054906101000a900473ffffffffffffffffffffffffffffffffffffffff1673ffffffffffffffffffffffffffffffffffffffff1603611455576001836114529190613738565b92505b80806114609061379b565b9150506113c8565b5060008267ffffffffffffffff81111561148557611484612eb2565b5b6040519080825280602002602001820160405280156114be57816020015b6114ab612af5565b8152602001906001900390816114a35790505b50905060005b84811015611693573373ffffffffffffffffffffffffffffffffffffffff16600a60006001846114f49190613738565b815260200190815260200160002060010160009054906101000a900473ffffffffffffffffffffffffffffffffffffffff1673ffffffffffffffffffffffffffffffffffffffff16036116805760006001826115509190613738565b90506000600a60008381526020019081526020016000209050806040518060a0016040529081600082015481526020016001820160009054906101000a900473ffffffffffffffffffffffffffffffffffffffff1673ffffffffffffffffffffffffffffffffffffffff1673ffffffffffffffffffffffffffffffffffffffff1681526020016002820160009054906101000a900473ffffffffffffffffffffffffffffffffffffffff1673ffffffffffffffffffffffffffffffffffffffff1673ffffffffffffffffffffffffffffffffffffffff168152602001600382015481526020016004820160009054906101000a900460ff1615151515815250508486815181106116635761166261376c565b5b602002602001018190525060018561167b9190613738565b945050505b808061168b9061379b565b9150506114c4565b508094505050505090565b3373ffffffffffffffffffffffffffffffffffffffff16600a600084815260200190815260200160002060020160009054906101000a900473ffffffffffffffffffffffffffffffffffffffff1673ffffffffffffffffffffffffffffffffffffffff1614611742576040517f08c379a000000000000000000000000000000000000000000000000000000000815260040161173990613967565b60405180910390fd5b600954341015611787576040517f08c379a000000000000000000000000000000000000000000000000000000000815260040161177e906139f9565b60405180910390fd5b6000600a600084815260200190815260200160002060040160006101000a81548160ff02191690831515021790555080600a60008481526020019081526020016000206003018190555033600a600084815260200190815260200160002060010160006101000a81548173ffffffffffffffffffffffffffffffffffffffff021916908373ffffffffffffffffffffffffffffffffffffffff16021790555030600a600084815260200190815260200160002060020160006101000a81548173ffffffffffffffffffffffffffffffffffffffff021916908373ffffffffffffffffffffffffffffffffffffffff1602179055506118856008612561565b611890333084611b33565b5050565b6000600560008473ffffffffffffffffffffffffffffffffffffffff1673ffffffffffffffffffffffffffffffffffffffff16815260200190815260200160002060008373ffffffffffffffffffffffffffffffffffffffff1673ffffffffffffffffffffffffffffffffffffffff16815260200190815260200160002060009054906101000a900460ff16905092915050565b60007f01ffc9a7000000000000000000000000000000000000000000000000000000007bffffffffffffffffffffffffffffffffffffffffffffffffffffffff1916827bffffffffffffffffffffffffffffffffffffffffffffffffffffffff1916149050919050565b61199b816125bd565b6119da576040517f08c379a00000000000000000000000000000000000000000000000000000000081526004016119d190613623565b60405180910390fd5b50565b600033905090565b816004600083815260200190815260200160002060006101000a81548173ffffffffffffffffffffffffffffffffffffffff021916908373ffffffffffffffffffffffffffffffffffffffff160217905550808273ffffffffffffffffffffffffffffffffffffffff16611a588361084b565b73ffffffffffffffffffffffffffffffffffffffff167f8c5be1e5ebec7d5bd14f71427d1e84f3dd0314c0f7b2291e5b200ac8c7c3b92560405160405180910390a45050565b600080611aaa8361084b565b90508073ffffffffffffffffffffffffffffffffffffffff168473ffffffffffffffffffffffffffffffffffffffff161480611aec5750611aeb8185611894565b5b80611b2a57508373ffffffffffffffffffffffffffffffffffffffff16611b1284610664565b73ffffffffffffffffffffffffffffffffffffffff16145b91505092915050565b8273ffffffffffffffffffffffffffffffffffffffff16611b538261084b565b73ffffffffffffffffffffffffffffffffffffffff1614611ba9576040517f08c379a0000000000000000000000000000000000000000000000000000000008152600401611ba090613a8b565b60405180910390fd5b600073ffffffffffffffffffffffffffffffffffffffff168273ffffffffffffffffffffffffffffffffffffffff1603611c18576040517f08c379a0000000000000000000000000000000000000000000000000000000008152600401611c0f90613b1d565b60405180910390fd5b611c2583838360016125fe565b8273ffffffffffffffffffffffffffffffffffffffff16611c458261084b565b73ffffffffffffffffffffffffffffffffffffffff1614611c9b576040517f08c379a0000000000000000000000000000000000000000000000000000000008152600401611c9290613a8b565b60405180910390fd5b6004600082815260200190815260200160002060006101000a81549073ffffffffffffffffffffffffffffffffffffffff02191690556001600360008573ffffffffffffffffffffffffffffffffffffffff1673ffffffffffffffffffffffffffffffffffffffff168152602001908152602001600020600082825403925050819055506001600360008473ffffffffffffffffffffffffffffffffffffffff1673ffffffffffffffffffffffffffffffffffffffff16815260200190815260200160002060008282540192505081905550816002600083815260200190815260200160002060006101000a81548173ffffffffffffffffffffffffffffffffffffffff021916908373ffffffffffffffffffffffffffffffffffffffff160217905550808273ffffffffffffffffffffffffffffffffffffffff168473ffffffffffffffffffffffffffffffffffffffff167fddf252ad1be2c89b69c2b068fc378daa952ba7f163c4a11628f55a4df523b3ef60405160405180910390a4611e278383836001612724565b505050565b60006002600083815260200190815260200160002060009054906101000a900473ffffffffffffffffffffffffffffffffffffffff169050919050565b6001816000016000828254019250508190555050565b600081600001549050919050565b600073ffffffffffffffffffffffffffffffffffffffff168273ffffffffffffffffffffffffffffffffffffffff1603611efc576040517f08c379a0000000000000000000000000000000000000000000000000000000008152600401611ef390613b89565b60405180910390fd5b611f05816125bd565b15611f45576040517f08c379a0000000000000000000000000000000000000000000000000000000008152600401611f3c90613bf5565b60405180910390fd5b611f536000838360016125fe565b611f5c816125bd565b15611f9c576040517f08c379a0000000000000000000000000000000000000000000000000000000008152600401611f9390613bf5565b60405180910390fd5b6001600360008473ffffffffffffffffffffffffffffffffffffffff1673ffffffffffffffffffffffffffffffffffffffff16815260200190815260200160002060008282540192505081905550816002600083815260200190815260200160002060006101000a81548173ffffffffffffffffffffffffffffffffffffffff021916908373ffffffffffffffffffffffffffffffffffffffff160217905550808273ffffffffffffffffffffffffffffffffffffffff16600073ffffffffffffffffffffffffffffffffffffffff167fddf252ad1be2c89b69c2b068fc378daa952ba7f163c4a11628f55a4df523b3ef60405160405180910390a46120a6600083836001612724565b5050565b6120b3826125bd565b6120f2576040517f08c379a00000000000000000000000000000000000000000000000000000000081526004016120e990613c87565b60405180910390fd5b806006600084815260200190815260200160002090816121129190613e53565b505050565b6000811161215a576040517f08c379a000000000000000000000000000000000000000000000000000000000815260040161215190613f71565b60405180910390fd5b600954341461219e576040517f08c379a0000000000000000000000000000000000000000000000000000000008152600401612195906139f9565b60405180910390fd5b6040518060a001604052808381526020013373ffffffffffffffffffffffffffffffffffffffff1681526020013073ffffffffffffffffffffffffffffffffffffffff16815260200182815260200160001515815250600a60008481526020019081526020016000206000820151816000015560208201518160010160006101000a81548173ffffffffffffffffffffffffffffffffffffffff021916908373ffffffffffffffffffffffffffffffffffffffff16021790555060408201518160020160006101000a81548173ffffffffffffffffffffffffffffffffffffffff021916908373ffffffffffffffffffffffffffffffffffffffff1602179055506060820151816003015560808201518160040160006101000a81548160ff0219169083151502179055509050506122d7333084611b33565b817fdebdb32cb5230ab727c9c361b16fdb2015df225c10e6a3e7f60ecd5dc5be4516333084600060405161230e9493929190613f91565b60405180910390a25050565b8173ffffffffffffffffffffffffffffffffffffffff168373ffffffffffffffffffffffffffffffffffffffff1603612388576040517f08c379a000000000000000000000000000000000000000000000000000000000815260040161237f90614022565b60405180910390fd5b80600560008573ffffffffffffffffffffffffffffffffffffffff1673ffffffffffffffffffffffffffffffffffffffff16815260200190815260200160002060008473ffffffffffffffffffffffffffffffffffffffff1673ffffffffffffffffffffffffffffffffffffffff16815260200190815260200160002060006101000a81548160ff0219169083151502179055508173ffffffffffffffffffffffffffffffffffffffff168373ffffffffffffffffffffffffffffffffffffffff167f17307eab39ab6107e8899845ad3d59bd9653f200f220920489ca2b5937696c31836040516124799190612c06565b60405180910390a3505050565b612491848484611b33565b61249d8484848461272a565b6124dc576040517f08c379a00000000000000000000000000000000000000000000000000000000081526004016124d3906140b4565b60405180910390fd5b50505050565b606060405180602001604052806000815250905090565b606061250482611992565b600061250e6124e2565b9050600081511161252e5760405180602001604052806000815250612559565b80612538846128b1565b6040516020016125499291906138f7565b6040516020818303038152906040525b915050919050565b600081600001549050600081116125ad576040517f08c379a00000000000000000000000000000000000000000000000000000000081526004016125a490614120565b60405180910390fd5b6001810382600001819055505050565b60008073ffffffffffffffffffffffffffffffffffffffff166125df83611e2c565b73ffffffffffffffffffffffffffffffffffffffff1614159050919050565b600181111561271e57600073ffffffffffffffffffffffffffffffffffffffff168473ffffffffffffffffffffffffffffffffffffffff16146126925780600360008673ffffffffffffffffffffffffffffffffffffffff1673ffffffffffffffffffffffffffffffffffffffff168152602001908152602001600020600082825461268a9190613704565b925050819055505b600073ffffffffffffffffffffffffffffffffffffffff168373ffffffffffffffffffffffffffffffffffffffff161461271d5780600360008573ffffffffffffffffffffffffffffffffffffffff1673ffffffffffffffffffffffffffffffffffffffff16815260200190815260200160002060008282546127159190613738565b925050819055505b5b50505050565b50505050565b600061274b8473ffffffffffffffffffffffffffffffffffffffff1661297f565b156128a4578373ffffffffffffffffffffffffffffffffffffffff1663150b7a026127746119dd565b8786866040518563ffffffff1660e01b81526004016127969493929190614195565b6020604051808303816000875af19250505080156127d257506040513d601f19601f820116820180604052508101906127cf91906141f6565b60015b612854573d8060008114612802576040519150601f19603f3d011682016040523d82523d6000602084013e612807565b606091505b50600081510361284c576040517f08c379a0000000000000000000000000000000000000000000000000000000008152600401612843906140b4565b60405180910390fd5b805181602001fd5b63150b7a0260e01b7bffffffffffffffffffffffffffffffffffffffffffffffffffffffff1916817bffffffffffffffffffffffffffffffffffffffffffffffffffffffff1916149150506128a9565b600190505b949350505050565b6060600060016128c0846129a2565b01905060008167ffffffffffffffff8111156128df576128de612eb2565b5b6040519080825280601f01601f1916602001820160405280156129115781602001600182028036833780820191505090505b509050600082602001820190505b600115612974578080600190039150507f3031323334353637383961626364656600000000000000000000000000000000600a86061a8153600a858161296857612967614223565b5b0494506000850361291f575b819350505050919050565b6000808273ffffffffffffffffffffffffffffffffffffffff163b119050919050565b600080600090507a184f03e93ff9f4daa797ed6e38ed64bf6a1f0100000000000000008310612a00577a184f03e93ff9f4daa797ed6e38ed64bf6a1f01000000000000000083816129f6576129f5614223565b5b0492506040810190505b6d04ee2d6d415b85acef81000000008310612a3d576d04ee2d6d415b85acef81000000008381612a3357612a32614223565b5b0492506020810190505b662386f26fc100008310612a6c57662386f26fc100008381612a6257612a61614223565b5b0492506010810190505b6305f5e1008310612a95576305f5e1008381612a8b57612a8a614223565b5b0492506008810190505b6127108310612aba576127108381612ab057612aaf614223565b5b0492506004810190505b60648310612add5760648381612ad357612ad2614223565b5b0492506002810190505b600a8310612aec576001810190505b80915050919050565b6040518060a0016040528060008152602001600073ffffffffffffffffffffffffffffffffffffffff168152602001600073ffffffffffffffffffffffffffffffffffffffff168152602001600081526020016000151581525090565b6000604051905090565b600080fd5b600080fd5b60007fffffffff0000000000000000000000000000000000000000000000000000000082169050919050565b612b9b81612b66565b8114612ba657600080fd5b50565b600081359050612bb881612b92565b92915050565b600060208284031215612bd457612bd3612b5c565b5b6000612be284828501612ba9565b91505092915050565b60008115159050919050565b612c0081612beb565b82525050565b6000602082019050612c1b6000830184612bf7565b92915050565b600081519050919050565b600082825260208201905092915050565b60005b83811015612c5b578082015181840152602081019050612c40565b60008484015250505050565b6000601f19601f8301169050919050565b6000612c8382612c21565b612c8d8185612c2c565b9350612c9d818560208601612c3d565b612ca681612c67565b840191505092915050565b60006020820190508181036000830152612ccb8184612c78565b905092915050565b6000819050919050565b612ce681612cd3565b8114612cf157600080fd5b50565b600081359050612d0381612cdd565b92915050565b600060208284031215612d1f57612d1e612b5c565b5b6000612d2d84828501612cf4565b91505092915050565b600073ffffffffffffffffffffffffffffffffffffffff82169050919050565b6000612d6182612d36565b9050919050565b612d7181612d56565b82525050565b6000602082019050612d8c6000830184612d68565b92915050565b612d9b81612d56565b8114612da657600080fd5b50565b600081359050612db881612d92565b92915050565b60008060408385031215612dd557612dd4612b5c565b5b6000612de385828601612da9565b9250506020612df485828601612cf4565b9150509250929050565b612e0781612cd3565b82525050565b6000602082019050612e226000830184612dfe565b92915050565b600080600060608486031215612e4157612e40612b5c565b5b6000612e4f86828701612da9565b9350506020612e6086828701612da9565b9250506040612e7186828701612cf4565b9150509250925092565b600060208284031215612e9157612e90612b5c565b5b6000612e9f84828501612da9565b91505092915050565b600080fd5b600080fd5b7f4e487b7100000000000000000000000000000000000000000000000000000000600052604160045260246000fd5b612eea82612c67565b810181811067ffffffffffffffff82111715612f0957612f08612eb2565b5b80604052505050565b6000612f1c612b52565b9050612f288282612ee1565b919050565b600067ffffffffffffffff821115612f4857612f47612eb2565b5b612f5182612c67565b9050602081019050919050565b82818337600083830152505050565b6000612f80612f7b84612f2d565b612f12565b905082815260208101848484011115612f9c57612f9b612ead565b5b612fa7848285612f5e565b509392505050565b600082601f830112612fc457612fc3612ea8565b5b8135612fd4848260208601612f6d565b91505092915050565b60008060408385031215612ff457612ff3612b5c565b5b600083013567ffffffffffffffff81111561301257613011612b61565b5b61301e85828601612faf565b925050602061302f85828601612cf4565b9150509250929050565b600081519050919050565b600082825260208201905092915050565b6000819050602082019050919050565b61306e81612cd3565b82525050565b600061307f82612d36565b9050919050565b61308f81613074565b82525050565b61309e81612beb565b82525050565b60a0820160008201516130ba6000850182613065565b5060208201516130cd6020850182613086565b5060408201516130e06040850182613086565b5060608201516130f36060850182613065565b5060808201516131066080850182613095565b50505050565b600061311883836130a4565b60a08301905092915050565b6000602082019050919050565b600061313c82613039565b6131468185613044565b935061315183613055565b8060005b83811015613182578151613169888261310c565b975061317483613124565b925050600181019050613155565b5085935050505092915050565b600060208201905081810360008301526131a98184613131565b905092915050565b6131ba81612beb565b81146131c557600080fd5b50565b6000813590506131d7816131b1565b92915050565b600080604083850312156131f4576131f3612b5c565b5b600061320285828601612da9565b9250506020613213858286016131c8565b9150509250929050565b600067ffffffffffffffff82111561323857613237612eb2565b5b61324182612c67565b9050602081019050919050565b600061326161325c8461321d565b612f12565b90508281526020810184848401111561327d5761327c612ead565b5b613288848285612f5e565b509392505050565b600082601f8301126132a5576132a4612ea8565b5b81356132b584826020860161324e565b91505092915050565b600080600080608085870312156132d8576132d7612b5c565b5b60006132e687828801612da9565b94505060206132f787828801612da9565b935050604061330887828801612cf4565b925050606085013567ffffffffffffffff81111561332957613328612b61565b5b61333587828801613290565b91505092959194509250565b6000806040838503121561335857613357612b5c565b5b600061336685828601612cf4565b925050602061337785828601612cf4565b9150509250929050565b6000806040838503121561339857613397612b5c565b5b60006133a685828601612da9565b92505060206133b785828601612da9565b9150509250929050565b7f4e487b7100000000000000000000000000000000000000000000000000000000600052602260045260246000fd5b6000600282049050600182168061340857607f821691505b60208210810361341b5761341a6133c1565b5b50919050565b7f4552433732313a20617070726f76616c20746f2063757272656e74206f776e6560008201527f7200000000000000000000000000000000000000000000000000000000000000602082015250565b600061347d602183612c2c565b915061348882613421565b604082019050919050565b600060208201905081810360008301526134ac81613470565b9050919050565b7f4552433732313a20617070726f76652063616c6c6572206973206e6f7420746f60008201527f6b656e206f776e6572206f7220617070726f76656420666f7220616c6c000000602082015250565b600061350f603d83612c2c565b915061351a826134b3565b604082019050919050565b6000602082019050818103600083015261353e81613502565b9050919050565b7f4552433732313a2063616c6c6572206973206e6f7420746f6b656e206f776e6560008201527f72206f7220617070726f76656400000000000000000000000000000000000000602082015250565b60006135a1602d83612c2c565b91506135ac82613545565b604082019050919050565b600060208201905081810360008301526135d081613594565b9050919050565b7f4552433732313a20696e76616c696420746f6b656e2049440000000000000000600082015250565b600061360d601883612c2c565b9150613618826135d7565b602082019050919050565b6000602082019050818103600083015261363c81613600565b9050919050565b7f4552433732313a2061646472657373207a65726f206973206e6f74206120766160008201527f6c6964206f776e65720000000000000000000000000000000000000000000000602082015250565b600061369f602983612c2c565b91506136aa82613643565b604082019050919050565b600060208201905081810360008301526136ce81613692565b9050919050565b7f4e487b7100000000000000000000000000000000000000000000000000000000600052601160045260246000fd5b600061370f82612cd3565b915061371a83612cd3565b9250828203905081811115613732576137316136d5565b5b92915050565b600061374382612cd3565b915061374e83612cd3565b9250828201905080821115613766576137656136d5565b5b92915050565b7f4e487b7100000000000000000000000000000000000000000000000000000000600052603260045260246000fd5b60006137a682612cd3565b91507fffffffffffffffffffffffffffffffffffffffffffffffffffffffffffffffff82036137d8576137d76136d5565b5b600182019050919050565b7f4e6f74204f776e65720000000000000000000000000000000000000000000000600082015250565b6000613819600983612c2c565b9150613824826137e3565b602082019050919050565b600060208201905081810360008301526138488161380c565b9050919050565b7f5375626d697420636f7272656374207072696365000000000000000000000000600082015250565b6000613885601483612c2c565b91506138908261384f565b602082019050919050565b600060208201905081810360008301526138b481613878565b9050919050565b600081905092915050565b60006138d182612c21565b6138db81856138bb565b93506138eb818560208601612c3d565b80840191505092915050565b600061390382856138c6565b915061390f82846138c6565b91508190509392505050565b7f4f6e6c79206f776e65722063616e206c697374206974656d0000000000000000600082015250565b6000613951601883612c2c565b915061395c8261391b565b602082019050919050565b6000602082019050818103600083015261398081613944565b9050919050565b7f6c697374696e6720666565206973206c657373207468616e206c697374696e6760008201527f5072696365000000000000000000000000000000000000000000000000000000602082015250565b60006139e3602583612c2c565b91506139ee82613987565b604082019050919050565b60006020820190508181036000830152613a12816139d6565b9050919050565b7f4552433732313a207472616e736665722066726f6d20696e636f72726563742060008201527f6f776e6572000000000000000000000000000000000000000000000000000000602082015250565b6000613a75602583612c2c565b9150613a8082613a19565b604082019050919050565b60006020820190508181036000830152613aa481613a68565b9050919050565b7f4552433732313a207472616e7366657220746f20746865207a65726f2061646460008201527f7265737300000000000000000000000000000000000000000000000000000000602082015250565b6000613b07602483612c2c565b9150613b1282613aab565b604082019050919050565b60006020820190508181036000830152613b3681613afa565b9050919050565b7f4552433732313a206d696e7420746f20746865207a65726f2061646472657373600082015250565b6000613b73602083612c2c565b9150613b7e82613b3d565b602082019050919050565b60006020820190508181036000830152613ba281613b66565b9050919050565b7f4552433732313a20746f6b656e20616c7265616479206d696e74656400000000600082015250565b6000613bdf601c83612c2c565b9150613bea82613ba9565b602082019050919050565b60006020820190508181036000830152613c0e81613bd2565b9050919050565b7f45524337323155524953746f726167653a2055524920736574206f66206e6f6e60008201527f6578697374656e7420746f6b656e000000000000000000000000000000000000602082015250565b6000613c71602e83612c2c565b9150613c7c82613c15565b604082019050919050565b60006020820190508181036000830152613ca081613c64565b9050919050565b60008190508160005260206000209050919050565b60006020601f8301049050919050565b600082821b905092915050565b600060088302613d097fffffffffffffffffffffffffffffffffffffffffffffffffffffffffffffffff82613ccc565b613d138683613ccc565b95508019841693508086168417925050509392505050565b6000819050919050565b6000613d50613d4b613d4684612cd3565b613d2b565b612cd3565b9050919050565b6000819050919050565b613d6a83613d35565b613d7e613d7682613d57565b848454613cd9565b825550505050565b600090565b613d93613d86565b613d9e818484613d61565b505050565b5b81811015613dc257613db7600082613d8b565b600181019050613da4565b5050565b601f821115613e0757613dd881613ca7565b613de184613cbc565b81016020851015613df0578190505b613e04613dfc85613cbc565b830182613da3565b50505b505050565b600082821c905092915050565b6000613e2a60001984600802613e0c565b1980831691505092915050565b6000613e438383613e19565b9150826002028217905092915050565b613e5c82612c21565b67ffffffffffffffff811115613e7557613e74612eb2565b5b613e7f82546133f0565b613e8a828285613dc6565b600060209050601f831160018114613ebd5760008415613eab578287015190505b613eb58582613e37565b865550613f1d565b601f198416613ecb86613ca7565b60005b82811015613ef357848901518255600182019150602085019450602081019050613ece565b86831015613f105784890151613f0c601f891682613e19565b8355505b6001600288020188555050505b505050505050565b7f43616e6e6f742073657420507269636520746f205a65726f0000000000000000600082015250565b6000613f5b601883612c2c565b9150613f6682613f25565b602082019050919050565b60006020820190508181036000830152613f8a81613f4e565b9050919050565b6000608082019050613fa66000830187612d68565b613fb36020830186612d68565b613fc06040830185612dfe565b613fcd6060830184612bf7565b95945050505050565b7f4552433732313a20617070726f766520746f2063616c6c657200000000000000600082015250565b600061400c601983612c2c565b915061401782613fd6565b602082019050919050565b6000602082019050818103600083015261403b81613fff565b9050919050565b7f4552433732313a207472616e7366657220746f206e6f6e20455243373231526560008201527f63656976657220696d706c656d656e7465720000000000000000000000000000602082015250565b600061409e603283612c2c565b91506140a982614042565b604082019050919050565b600060208201905081810360008301526140cd81614091565b9050919050565b7f436f756e7465723a2064656372656d656e74206f766572666c6f770000000000600082015250565b600061410a601b83612c2c565b9150614115826140d4565b602082019050919050565b60006020820190508181036000830152614139816140fd565b9050919050565b600081519050919050565b600082825260208201905092915050565b600061416782614140565b614171818561414b565b9350614181818560208601612c3d565b61418a81612c67565b840191505092915050565b60006080820190506141aa6000830187612d68565b6141b76020830186612d68565b6141c46040830185612dfe565b81810360608301526141d6818461415c565b905095945050505050565b6000815190506141f081612b92565b92915050565b60006020828403121561420c5761420b612b5c565b5b600061421a848285016141e1565b91505092915050565b7f4e487b7100000000000000000000000000000000000000000000000000000000600052601260045260246000fdfea26469706673582212203ed7e81c86607d4f11c7285540731cafdc0b2b4e859741475690833923af5f4f64736f6c63430008110033",
  "linkReferences": {},
  "deployedLinkReferences": {}
}